:020000040800F2
:10000000B8070020D5000008810F0008F10900089A
:1000100000000000000000000000000000000000E0
:10002000000000000000000000000000A112000815
:1000300000000000000000001110000895130008E7
:10004000E7000008E7000008E7000008E7000008F4
:10005000E7000008E700000899040008E70000082E
:10006000E7000008E7000008E7000008E7000008D4
:10007000E7000008E7000008E7000008E7000008C4
:1000800079140008E7000008E7000008E70000080E
:10009000250A0008E7000008E7000008E70000085C
:1000A000E7000008E7000008E7000008E700000894
:1000B000E7000008E7000008D9160008E70000087C
:1000C0000348854600F0B4F900480047111C0008B9
:1000D000B80700200448804704480047FEE7FEE7D1
:1000E000FEE7FEE7FEE7FEE799130008C1000008FF
:1000F00008B50020009069461348144A90470098BC
:10010000401C002808D00098C04381B20098000C21
:10011000814201D1012008BD0020009069460C48B1
:100120000A4A9047002801D00020F4E70098C04315
:1001300081B20098000C814204D1064900984860C1
:100140000120E8E70020E6E704F0FF1F8102FF1F1F
:1001500030F4FF1F0018004030B50B460146002068
:100160002022012409E00D46D5409D4205D31D46BD
:100170009540491B2546954040191546521E002DB5
:10018000F1DC30BD70B500242546002801DA0124D9
:100190004042002901DA01254942FFF7DDFFAC4268
:1001A00000D04042002C00D0494270BD03460B43B2
:1001B0009B0703D009E008C9121F08C0042AFAD21D
:1001C00003E00B780370401C491C521EF9D27047A3
:1001D000F8B502464A40D40F42004B0052085B0873
:1001E0009A4202D20246084611464A0023D0C30D65
:1001F0004A00DDB2120EAD1A202D35DA4902012671
:10020000490AF6058A19002C00D0524220214F1BC2
:100210001146B9402A411018C20D9A4221D0002C33
:1002200017D0012D08DCDA05801AD20F8019D20709
:10023000DBB200F0C4F8F8BDDA05801A01234000F3
:100240001B06C01880185A428018CA0F1043490074
:1002500007E04908C2071143DA05801A80194008EF
:10026000801800F0A4F8F8BD61000122511A001BAB
:10027000F7E70122D2075140AAE70122D2075040F6
:10028000A6E7024670B54A40D30FDB0740002DD0E9
:100290004A002AD0010E140E000212020919400A67
:1002A000520A8418E50104465443000A120A2E0437
:1002B0005043A4194219200CC543AA18120C012559
:1002C000AD03521C521912047F39240400D0521C71
:1002D000104301D44000491EC2B20C06C0092018C8
:1002E000401C4008802A02D003E0002070BD400876
:1002F0004000002900DA0020184370BD70B50246A6
:100300004A40D50F40004A00ED0740085208002837
:1003100014D0002A12D0C40DD30D41020120C00513
:100320005202490A520AE41A091812187D349142FD
:1003300001D3641C00E04900002C01DA002070BDEC
:100340000023914201D3891A034340084900002841
:10035000F7D100290AD0914202D10121C90705E055
:10036000914201D2012101E00121C943E005C018F9
:10037000401900F01CF870BD10B5002296231146FC
:1003800000F01DF810BD410040020122400AD205D4
:10039000090E80187F2901DA00207047962903DCB6
:1003A0009622511AC84070479639884070470029F4
:1003B00004DA401C490001D140084000704770B485
:1003C0000024050C05D11024000402D1002921D0FD
:1003D0001124050E01D100020834050F01D10001DE
:1003E000241D850F01D18000A41C002801DB4000E2
:1003F000641C002908D020252E1B0D46F540A14085
:1004000000D001212943084301061B1B000ADB1D04
:1004100002D5002070BC7047DB0518188018002931
:10042000F8DA401C4900F5D170BC40084000704724
:10043000064C0125064E05E0E36807CC2B430C3C37
:1004400098471034B442F7D3FFF73EFE4C1E000825
:100450006C1E00080146087800024A781043704775
:1004600070B502460B46FF25FF2408E01178521CA8
:1004700069400748405C604005460648445C1846B1
:100480005E1EB3B20028F1D12802204370BD0000E7
:100490004C1C00084C1D000800B51D484069022195
:1004A0000840002832D01A4840690843184948617A
:1004B0001848808901210843164988810020154980
:1004C0002031888000BF1348203080883428FADA31
:1004D000114800690221084000280ED10D49203141
:1004E000888001F021FB01200C49087000200C4994
:1004F000087001200B49087008E006488089400810
:1005000040000449888100200649087000BD0000B1
:100510000004014000100040000C014012000020C7
:10052000EC000020140000200249C9680143014A80
:10053000D16070470020024030B5044607253420C2
:10054000FFF7F2FF0B20000400F084F80546042DAD
:1005500017D10D480069022108430B49086108467C
:100560004461006940210843074908610B200004E9
:1005700000F070F805460448006904490840024943
:100580000861284630BD000000200240FD3F000009
:1005900007200D49C968C907C90F002901D00120EA
:1005A00010E00949C96804221140002901D0022045
:1005B00008E00549C96810221140002901D0032034
:1005C00000E004207047000000200240034800695A
:1005D0008021084301490861704700000020024063
:1005E00078B504460D460726002000903420FFF71A
:1005F0009BFF0120400300F02DF80646042E10D189
:100600000948006901210843074908612560F00293
:1006100000F020F8064604480069044908400249F1
:100620000861304678BD000000200240FE3F000017
:100630000548006980210840002804D00348024989
:100640004860034848607047002002402301674526
:10065000AB89EFCD10B503460724FFF799FF044699
:1006600003E0FFF795FF04465B1E012C01D1002B30
:10067000F7D1002B00D10624204610BD0020002118
:100680001F4A118000BF0BE081000122D2068918A9
:1006900009681B4A12888918194A1180411C88B2BE
:1006A000FF28F1DD00200AE08100164A8918096858
:1006B000134A12888918124A1180411C88B2FF28F7
:1006C000F2DD00200AE081000F4A891809680C4A0F
:1006D000128889180A4A1180411C88B2FF28F2DD6D
:1006E00000200AE08100094A89180968044A128832
:1006F0008918034A1180411C88B2FF28F2DD704737
:10070000A0000020001000080020000800300008B1
:100710001B4880690421084319498861084680699B
:100720000821084316498861084680690121084369
:1007300013498861134800680C21884311490860F7
:1007400008460068042108430E49086008464068CE
:10075000042188430B4948600846C0680C2188433F
:100760000849C8600846C068042108430549C860B4
:10077000084680680221884302498860704700006B
:1007800000100240000801400EB50E48C06B0090FA
:100790000C484030006801900A48403040680290A0
:1007A0000098000C08490880009848800198000CC7
:1007B00088800198C8800298000C088102984881BE
:1007C0000EBD0000C0F4FF1FA803002070B5002478
:1007D000002505E068007249085A0419681CC5B272
:1007E000A02DF7DBA0212046FFF7B6FC04466D489C
:1007F0006043840A6C48007809287DD16A480278F1
:100800000078401C684B18705000684A1452002051
:10081000194608700024002505E068006349085A5D
:100820000419681CC5B20A2DF7DB61490C800988E0
:10083000604A12888818C10F0918C903090C5C4A5C
:100840001180104600885B490880104604885A4889
:100850000069012149030840002803D05748008857
:10086000012821D156480088401C55490880084677
:100870000088062818DD53480088502805D04C48C9
:1008800000880A305049088004E0494800880A3846
:100890004D49088001F00AF801204C4908700020F9
:1008A000474908804549088048480078002822D0F8
:1008B00047490888C10F091849104900411A012900
:1008C00006D13D484069890208433B49486103E03D
:1008D00039484069384948613D480088401C3C49D6
:1008E0000880084600880A2805DB00203749087080
:1008F00001203749088000E046E032480088402166
:10090000084000280FD130480088844203D80020D6
:100910003049088070BD264800882B490988401A54
:100920002C4908800EE028480088844203D3002028
:1009300028490880EEE7244800881D490988401AA4
:1009400024490880234804882349098861430846CC
:1009500022490988FFF700FC044621480088214904
:10096000884204DA204800881A49088001E01949C1
:100970000C80184800881D49096888420DD91B4819
:1009800000881449088008E0074802780078401C75
:10099000054B18705000054A145200BFBAE700001A
:1009A0004802002039030000C8000020880300200E
:1009B000A4000020C6000020000801406A000020BA
:1009C000CA0000205C000020AA000020CE00002009
:1009D000CC000020A8000020740000207600002039
:1009E0006800002088130000860000208C00002092
:1009F00000BFFEE710B500F0CFFC302001F0BEF8DC
:100A0000FFF786FE00F05EFD00F02EFBFF20F530C4
:100A100001F0D6F8FFF7DAFEFFF730FEFFF7B4FE7D
:100A200010BD000010B549480069C007C00F00287C
:100A300015D0474800780A287DDA46480069022127
:100A4000084040084449424A127888544048007897
:100A5000092805DA3E480078401C3D4908706DE0E1
:100A60003D480078002834D13B48407A012830D1F5
:100A700036488089400840003449888101F0CEF82A
:100A80003548407834498978490040183249C97856
:100A90008900401830490979C90040182E49497920
:100AA000090140182C498979490140182A49C97916
:100AB000890140182849097AC9014018C4B20020A8
:100AC00023490870204600F017FE002023490870D3
:100AD00034E0234801780078401C214A10700A292C
:100AE0000BDD1A488089400840001849888101F0D0
:100AF00095F800201949087010BD1748407816492C
:100B000008700846807848700846C07888700846A3
:100B10000079C870084640790871084680794871A4
:100B20000846C07988710846007AC8710846407A3C
:100B3000087203E0FFE700200549087003480069D8
:100B4000400840000149086100BFD5E7001000409F
:100B500012000020000C0140EC00002014000020D6
:100B60001300002070B590B0002146484170203835
:100B7000807F082803D003214248417025E0414886
:100B80001E38FFF767FC06463E481C38FFF762FC3C
:100B90000546202D03D903213A48417015E0002471
:100BA0000FE060006A468118304600F0E5F8002842
:100BB00003D102213348417005E0701C86B2601CED
:100BC00084B2AC42EDDB00BF00BF2E484078002865
:100BD00052D100212B4880308170A0380178A0309C
:100BE00082788078401CC3B22648803083707E387B
:100BF000815422384178A03082788078401CC3B27A
:100C00002048803083707E3881546806010E1D486C
:100C1000803082788078401CC3B21A48803083705C
:100C20007E38815400241EE060006946095C154846
:100C3000803082788078401CC3B212488030837044
:100C40007E3881546000401C6946095C0D48803044
:100C500082788078401CC3B20A48803083707E3826
:100C60008154601C84B2AC42DEDB0648803081785F
:100C70007E3800F03BF903E00249487800F00CF9B7
:100C800010B070BD1601002070B5002114484170ED
:100C90002038807F082803D003211148417013E0D9
:100CA0000F481E38FFF7D6FB05460D481C38FFF7E6
:100CB000D1FB04462146284600F044F9012802D021
:100CC00002210748417000BF05484078002802D142
:100CD00000F0FAF803E00249487800F0DDF870BD52
:100CE0001601002010B50C484078032802D00628D1
:100CF00006D102E0FFF736FF0BE0FFF7C5FF08E083
:100D000001210548203041700146487800F0C4F8C0
:100D100000BF00BF10BD0000F600002070B51348F2
:100D20000078002800D170BD0020104908701048DC
:100D3000807F042800DA13E00D48817FFFF790FBE5
:100D40000546002D00D00BE00948047809480078DA
:100D5000844202D0FD2C00D002E0FFF7C3FF00BFA9
:100D600000200349887700BFDDE700001A0000205B
:100D7000F60000205800002010B504460A46264B15
:100D8000E01A9C422AD012DC244BE01A9C421ED06E
:100D900008DC002C13D0E01FF938002811D00128FE
:100DA00031D111E0012815D002282CD114E0C01E49
:100DB000030000F09BFE0616191C1F2225280021A7
:100DC00023E01748017820E0164801881DE0F9214A
:100DD00009021AE0144918E0144916E01448018881
:100DE00013E01448018810E0124841880DE01148D2
:100DF00081880AE00F48C18807E00E48018904E0B5
:100E00000C48418901E0002010BD00BF081210709D
:100E100051700120F8E700000D02000010010000F1
:100E2000580000202E000020011500004080000026
:100E3000B0000020A803002070B50446002010492F
:100E40000870104801881048FFF79CF905460020FB
:100E50000E490870681E81B22F2000F0D7FA0020DA
:100E60000B4988800B48807F1E2807DA0948817F5C
:100E7000807F401C074A90771046445470BD0000A4
:100E80001A0000202E000020C00E160200000020D4
:100E900020040040F600002038B5044609480178D7
:100EA00068460170074841788020014368464170D8
:100EB00084700A2000F084FE0321684600F016F8D2
:100EC00038BD0000F60000201CB5002405E00648EF
:100ED000005D69460855601CC4B2062CF7DB06218C
:100EE000684600F003F81CBDF600002070B5A0B005
:100EF00005460C46224629466846FFF757F9214623
:100F00002846FFF7ADFA064632122046611CCCB2E5
:100F100069460A542046611CCCB269460E540A2028
:100F200000F04EFE2146684600F074F80448C4778D
:100F3000224669462030FFF739F920B070BD000025
:100F4000A801002070B505460C46E81FF9380028B6
:100F500002D001280AD104E007490C7000F0A6FC79
:100F600006E00648048000F0A1FC01E0002070BD0E
:100F700000BF0120FBE70000580000202E000020E9
:100F800070470000C206D20E01219140014A116053
:100F90007047000000E100E010B5002819DA1A4A95
:100FA00003071B0F083B9B089B00D2588307DC0EEE
:100FB000FF23A3409A438B071B0E8407E40EA34034
:100FC0001A43114B0407240F083CA408A4001A512B
:100FD00018E00E4A03231B02D21883089B00D25844
:100FE0008307DC0EFF23A3409A438B071B0E840765
:100FF000E40EA3401A43054B032424021B19840862
:10100000A4001A5110BD00001CED00E000E100E05A
:101010007047000010B50246114B5B691024234352
:101020000F4C636100200BE0135C0E4CA38000BFEB
:101030000C4B1B8880242340002BF9D0431C98B212
:101040008842F1DB00BF074B1B8840242340002B64
:10105000F9D0034B5B691024A343014C636110BDBD
:1010600000080140003801401FB55248524908604D
:10107000006800904F48406801904E488068029098
:101080004C48C06803904D4903980880494800695E
:101090004B490870474840694A490870454880698B
:1010A000494908804348C069484908804148006A66
:1010B000474908603F48406A464908803D48806A81
:1010C000454908803B48C06A00B244490880394815
:1010D000006B434908803748406B424908803548D7
:1010E000806B414908803348C06B404908803148D3
:1010F000403000683E4908802E48403040684880B3
:101100002C48403080683B4908802A484030C068FD
:1011100048802848403000693749088025484030D9
:101120004069488023484030806900B233490880D4
:1011300020484030006A00B2314908801D484030E4
:10114000406A3049088030490198087008460078A4
:10115000FD2801DDFD2008702C4902980880084612
:101160000088062801DD02200880144903980880C1
:1011700022490020085E401C002808D12049085E52
:10118000401C002803D11D4908801D4908800D48D6
:101190000078052802DD00200A4908701C490098E3
:1011A000884203D000F036F8FFF75EFFFFF70EFA33
:1011B0001FBD000000700008B8000020AA00002039
:1011C0005A0000201D00002074000020760000203E
:1011D0008C0000207C0000207E0000208A0000207F
:1011E00080000020820000205C000020860000209B
:1011F00094000020980000209C0000204C0000205B
:1012000050000020B0000020580000202E000020D8
:101210007856341210B5FFF70BFA3420FFF784F933
:101220001C48FFF789F9042801D000BFFEE71948E0
:101230001949086000BF19491648FFF7D1F9042879
:10124000F9D100BF01211348001DFFF7C9F9042897
:10125000F8D111480068001D0F49086000BF022145
:101260000C480830FFF7BCF90428F8D10A48006898
:10127000001D0949086000BF0021C94305480C3022
:10128000FFF7AEF90428F7D103480068001D0249B2
:10129000086010BD00700008B800002078563412B5
:1012A00070470000F8B50024002500270026FEF74F
:1012B0001FFF074633480068012108433149086091
:1012C00000BF304800680221084046086D1C002E0F
:1012D00003D1052000028542F3D12A48006802218B
:1012E00008404608002E01D100BFFEE726480068EE
:1012F00080088000244908600846006802210843ED
:10130000214908601F4840681E49486008464068F7
:101310000321890588431B494860084640681B49EA
:101320000840184948600846446800BF032000048C
:10133000044300BF00BF084644600068012109065D
:1013400008431049086000BF0E48006801214906A3
:1013500008400028F8D00B48406880088000094900
:10136000486008464068022108430649486000BFBB
:101370000448406806490840012189038842F7D1A2
:10138000F8BD00000010024000200240FFFFC0FE38
:1013900008C000007047000010B517480068012120
:1013A0000843154908600846406814490840124936
:1013B000486008460068124908400F49086008461E
:1013C00000680121890588430B4908600846406888
:1013D0000C490840084948600720C002C862BF2085
:1013E0000004886008480068102108430649086026
:1013F000FFF758FF10BD0000001002400000FF2161
:10140000FFFFF6FEFFFF00FE0020024070B504461D
:101410000D461748C069022108431549C86115489F
:10142000058184811348203800680421084311494C
:1014300020390860084600683721090188430D49B2
:10144000203908600846006881210843094920398D
:1014500008600846808901210843064920398881AF
:1014600001211020FFF798FD1020FFF78BFD70BDC4
:1014700000100240200400400F480069C007C00F60
:10148000002812D00D480078002809D001200C490E
:10149000087009488089400840000749888104E0B5
:1014A00006480078401C0549087003480069400858
:1014B000400001490861704700040040000000201E
:1014C0001A000020F0B585B002257D48806904210E
:1014D00008437B4988610846806969030843784965
:1014E000886178480068F02188437649086008469A
:1014F0000068A021084373490860084640680C2131
:101500008843704948600846C068F02188436D49A7
:10151000C8600846C068502108436A49C860084648
:1015200080680C218843674988600846006AFF216B
:1015300009028843634908620846006A891508431E
:10154000604908620846006A891408435D490862D8
:101550005D480088012802D14B24A40124E05A48A8
:101560000088022802D14B24E4011DE0564800887F
:10157000032802D14B24240216E053480088042893
:1015800002D14B2464020FE04F480088052802D1A5
:10159000E124240208E04C480088062802D1E12416
:1015A000640201E04B2464012001FEF7E5FE0146E0
:1015B00002904648FEF7A2FE07463846FEF7E3FED5
:1015C00086B23046FEF7D8FE39460090FEF755FE4B
:1015D0008321C9050190FEF754FE0290FEF7D3FE69
:1015E00080B203903005060C0398301886B2384854
:1015F0000681002D01D0012D07D1354880890121B8
:10160000090308433249888105E03148808931491E
:1016100008402F4988812E48008A03210903884306
:101620002B490882002D0CD10846808909150843F2
:10163000274988810846808949158843244988813B
:1016400015E0012D0CD122488089A90208432049C8
:10165000888108468089491508431D49888106E02C
:101660001B488089012189028843194988811848CB
:10167000808A0721090288431549888208468089A3
:1016800008210843124988810846808904210843BB
:101690000F49888108468089202108430C498881A8
:1016A00000211E20FFF778FC1E20FFF76BFC084886
:1016B00080890121490308430549888105B0F0BDAF
:1016C00000100240000801402E000020001B374C93
:1016D00000380140EFFFFF0010B5064800882021C8
:1016E0000840002804D003498988C8B2FFF7A4FB4A
:1016F00010BD00000038014067494978664A117002
:101700001146897851701146C9789170114609794E
:10171000D17011464979117111468979517111467B
:10172000C97991711146097AD1711146497A1172BC
:101730001146897A51721146C97A91721146C8725E
:101740004978202928D111468978202924D11146A9
:101750008979202920D11146C97970291CD11146D7
:10176000C9780907090F642251434B4A12791207BD
:10177000120F0A235A438918474A52791207120F47
:101780008918464A11800021434A1170444909785A
:10179000491C434A117073E03F494978202932D1EE
:1017A0003D498978F022114030292CD13A49897974
:1017B000202928D13849C979702924D13649897816
:1017C0000907090F7D22D2005143334AD27812070C
:1017D000120F64235A438A182F4909790907090F00
:1017E0000A23594351182C4A52791207120F8918AB
:1017F0002A4A11800021284A117029490978491C78
:10180000274A11703CE024490978202938D122491F
:101810004978F0221140302932D11F498979202995
:101820002ED11D49C97970292AD11B494978090748
:10183000090F1C4A5143184A92781207120F7D2350
:10184000DB005A438A181449C9780907090F642331
:1018500059435218104909790907090F0A235943B6
:1018600051180D4A52791207120F89180B4A11802C
:101870000021094A11700A490978491C084A117067
:1018800006490988084A1268914203D9064909881D
:10189000024A118070470000D40000203000002070
:1018A00006000020102700008C00002010B5FEF775
:1018B000BFFE3420FEF738FE7548FEF73DFE0428D3
:1018C00001D000BFFEE700BF72497148FEF788FEF5
:1018D0000428F9D100BF704801786D48001DFEF75B
:1018E0007FFE0428F7D100BF6C48018868480830A3
:1018F000FEF776FE0428F7D100BF694801886448E6
:101900000C30FEF76DFE0428F7D100BF6548017862
:101910005F481030FEF764FE0428F7D100BF62482C
:1019200001785B481430FEF75BFE0428F7D100BF56
:101930005E48018856481830FEF752FE0428F7D159
:1019400000BF5B48018852481C30FEF749FE04285E
:10195000F7D100BF574801684D482030FEF740FEE0
:101960000428F7D100BF5448018849482430FEF7C5
:1019700037FE0428F7D100BF50480188444828307A
:10198000FEF72EFE0428F7D100BF4D480021415E2E
:101990003F482C30FEF724FE0428F6D100BF49480A
:1019A00001883B483030FEF71BFE0428F7D100BF0A
:1019B0004548018836483430FEF712FE0428F7D136
:1019C00000BF4248018832483830FEF709FE04283B
:1019D000F7D100BF3E4801882D483C30FEF700FE9D
:1019E0000428F7D100BF3B48018829484030FEF762
:1019F000F7FD0428F7D100BF364841882448443019
:101A0000FEF7EEFD0428F7D100BF334801882048D7
:101A10004830FEF7E5FD0428F7D100BF2E48418885
:101A20001B484C30FEF7DCFD0428F7D100BF2B48E3
:101A3000018817485030FEF7D3FD0428F7D100BFC6
:101A40002648418812485430FEF7CAFD0428F7D1D1
:101A500000BF23480021415E0D485830FEF7C0FD0D
:101A60000428F6D100BF1F480021415E08486030BD
:101A7000FEF7B6FD0428F6D100BF1B4801880448D4
:101A80006430FEF7ADFD0428F7D1FEF79FFD10BDD1
:101A90000070000878563412580000202E000020F4
:101AA000AA0000205A0000201D0000207400002021
:101AB000760000208C0000207C0000207E000020AA
:101AC0008A00002080000020820000205C000020AE
:101AD0008600002094000020980000209C00002038
:101AE0004C00002050000020B000002030B47446AC
:101AF000641E2578641CAB4204D3635D5B00E3186D
:101B000030BC18471D46F8E702E008C8121F08C19C
:101B1000002AFAD170477047002001E001C1121F6E
:101B2000002AFBD17047000012488068F0218843EA
:101B30001049886008468068102108430D49886074
:101B40000D480068022188430B4908600846406838
:101B500002218843084948600846C06802210843BA
:101B60000549C860084680680221884302498860A8
:101B70007047000000000140000401400C49096961
:101B8000042211430A4A11611146096949084900B2
:101B90001161C217520F12185205120E054B1A701E
:101BA00019460978044A5143044A118070470000DD
:101BB00000E000E016000020B80B00001800002034
:101BC0000146114A12884A43104B5A6100229A6119
:101BD0001A46126901231A430C4B1A6100BF0B4AC3
:101BE0001069C207D20F002A04D001221204024059
:101BF000002AF4D0054A126952085200034B1A61B8
:101C000000229A61704700001800002000E000E008
:101C1000FEF7F0FE01E0FFF781F8FCE70948806875
:101C200010210843074988600748006802210843DB
:101C3000054908600846C068022108430249C86097
:101C400070470000000001400004014000C18140D5
:101C500001C0804101C0804100C1814001C080417C
:101C600000C1814000C1814001C0804101C080416C
:101C700000C1814000C1814001C0804100C181405C
:101C800001C0804101C0804100C1814001C080414C
:101C900000C1814000C1814001C0804100C181403C
:101CA00001C0804101C0804100C1814000C181402C
:101CB00001C0804101C0804100C1814001C080411C
:101CC00000C1814000C1814001C0804101C080410C
:101CD00000C1814000C1814001C0804100C18140FC
:101CE00001C0804101C0804100C1814000C18140EC
:101CF00001C0804101C0804100C1814001C08041DC
:101D000000C1814000C1814001C0804100C18140CB
:101D100001C0804101C0804100C1814001C08041BB
:101D200000C1814000C1814001C0804101C08041AB
:101D300000C1814000C1814001C0804100C181409B
:101D400001C0804101C0804100C1814000C0C1018B
:101D5000C30302C2C60607C705C5C404CC0C0DCD1B
:101D60000FCFCE0E0ACACB0BC90908C8D81819D98B
:101D70001BDBDA1A1EDEDF1FDD1D1CDC14D4D515BB
:101D8000D71716D6D21213D311D1D010F03031F1AB
:101D900033F3F23236F6F737F53534F43CFCFD3DDB
:101DA000FF3F3EFEFA3A3BFB39F9F83828E8E929CB
:101DB000EB2B2AEAEE2E2FEF2DEDEC2CE42425E57B
:101DC00027E7E62622E2E323E12120E0A06061A1EB
:101DD00063A3A26266A6A767A56564A46CACAD6D9B
:101DE000AF6F6EAEAA6A6BAB69A9A86878B8B9790B
:101DF000BB7B7ABABE7E7FBF7DBDBC7CB47475B53B
:101E000077B7B67672B2B373B17170B0509091512A
:101E10009353529296565797559594549C5C5D9D5A
:101E20005F9F9E5E5A9A9B5B99595898884849894A
:101E30004B8B8A4A4E8E8F4F8D4D4C8C44848545FA
:101E40008747468682424383418180406C1E00085A
:101E500000000020D4000000081B0008401F0008FC
:101E6000D4000020E4060000181B00080000000059
:101E70000000000100000000000000000000000061
:101E80000000000000000000010000000000000051
:101E90000000000000000000000000000000000042
:101EA0000000000000000000000000000000000032
:101EB0000000000000000000000000000000000022
:101EC0000000000000000000000000000000000012
:101ED0000000000000000000000000000000000002
:101EE00000000000000000000000000000000000F2
:101EF00000000000000000000000000000000000E2
:101F000000000000000000000000000000000000D1
:101F100000000000000000000000000000000000C1
:101F20000000000000000000CDAB103200000000F7
:101F300000000000000000000100000000000000A0
:04000005080000C12E
:00000001FF
